{
  "address": "0x9e3109dEB1d6158CdA0db7b2f196aD4E443918f4",
  "abi": [
    {
      "inputs": [
        {
          "internalType": "string",
          "name": "contractUri",
          "type": "string"
        },
        {
          "internalType": "string",
          "name": "tokenUri",
          "type": "string"
        }
      ],
      "stateMutability": "nonpayable",
      "type": "constructor"
    },
    {
      "anonymous": false,
      "inputs": [
        {
          "indexed": true,
          "internalType": "address",
          "name": "account",
          "type": "address"
        },
        {
          "indexed": true,
          "internalType": "address",
          "name": "operator",
          "type": "address"
        },
        {
          "indexed": false,
          "internalType": "bool",
          "name": "approved",
          "type": "bool"
        }
      ],
      "name": "ApprovalForAll",
      "type": "event"
    },
    {
      "anonymous": false,
      "inputs": [
        {
          "indexed": true,
          "internalType": "address",
          "name": "previousOwner",
          "type": "address"
        },
        {
          "indexed": true,
          "internalType": "address",
          "name": "newOwner",
          "type": "address"
        }
      ],
      "name": "OwnershipTransferred",
      "type": "event"
    },
    {
      "anonymous": false,
      "inputs": [
        {
          "indexed": true,
          "internalType": "bytes32",
          "name": "role",
          "type": "bytes32"
        },
        {
          "indexed": true,
          "internalType": "bytes32",
          "name": "previousAdminRole",
          "type": "bytes32"
        },
        {
          "indexed": true,
          "internalType": "bytes32",
          "name": "newAdminRole",
          "type": "bytes32"
        }
      ],
      "name": "RoleAdminChanged",
      "type": "event"
    },
    {
      "anonymous": false,
      "inputs": [
        {
          "indexed": true,
          "internalType": "bytes32",
          "name": "role",
          "type": "bytes32"
        },
        {
          "indexed": true,
          "internalType": "address",
          "name": "account",
          "type": "address"
        },
        {
          "indexed": true,
          "internalType": "address",
          "name": "sender",
          "type": "address"
        }
      ],
      "name": "RoleGranted",
      "type": "event"
    },
    {
      "anonymous": false,
      "inputs": [
        {
          "indexed": true,
          "internalType": "bytes32",
          "name": "role",
          "type": "bytes32"
        },
        {
          "indexed": true,
          "internalType": "address",
          "name": "account",
          "type": "address"
        },
        {
          "indexed": true,
          "internalType": "address",
          "name": "sender",
          "type": "address"
        }
      ],
      "name": "RoleRevoked",
      "type": "event"
    },
    {
      "anonymous": false,
      "inputs": [
        {
          "indexed": true,
          "internalType": "address",
          "name": "operator",
          "type": "address"
        },
        {
          "indexed": true,
          "internalType": "address",
          "name": "from",
          "type": "address"
        },
        {
          "indexed": true,
          "internalType": "address",
          "name": "to",
          "type": "address"
        },
        {
          "indexed": false,
          "internalType": "uint256[]",
          "name": "ids",
          "type": "uint256[]"
        },
        {
          "indexed": false,
          "internalType": "uint256[]",
          "name": "values",
          "type": "uint256[]"
        }
      ],
      "name": "TransferBatch",
      "type": "event"
    },
    {
      "anonymous": false,
      "inputs": [
        {
          "indexed": true,
          "internalType": "address",
          "name": "operator",
          "type": "address"
        },
        {
          "indexed": true,
          "internalType": "address",
          "name": "from",
          "type": "address"
        },
        {
          "indexed": true,
          "internalType": "address",
          "name": "to",
          "type": "address"
        },
        {
          "indexed": false,
          "internalType": "uint256",
          "name": "id",
          "type": "uint256"
        },
        {
          "indexed": false,
          "internalType": "uint256",
          "name": "value",
          "type": "uint256"
        }
      ],
      "name": "TransferSingle",
      "type": "event"
    },
    {
      "anonymous": false,
      "inputs": [
        {
          "indexed": false,
          "internalType": "string",
          "name": "value",
          "type": "string"
        },
        {
          "indexed": true,
          "internalType": "uint256",
          "name": "id",
          "type": "uint256"
        }
      ],
      "name": "URI",
      "type": "event"
    },
    {
      "inputs": [],
      "name": "DEFAULT_ADMIN_ROLE",
      "outputs": [
        {
          "internalType": "bytes32",
          "name": "",
          "type": "bytes32"
        }
      ],
      "stateMutability": "view",
      "type": "function"
    },
    {
      "inputs": [],
      "name": "URI_SETTER_ROLE",
      "outputs": [
        {
          "internalType": "bytes32",
          "name": "",
          "type": "bytes32"
        }
      ],
      "stateMutability": "view",
      "type": "function"
    },
    {
      "inputs": [
        {
          "internalType": "address",
          "name": "account",
          "type": "address"
        },
        {
          "internalType": "uint256",
          "name": "id",
          "type": "uint256"
        }
      ],
      "name": "balanceOf",
      "outputs": [
        {
          "internalType": "uint256",
          "name": "",
          "type": "uint256"
        }
      ],
      "stateMutability": "view",
      "type": "function"
    },
    {
      "inputs": [
        {
          "internalType": "address[]",
          "name": "accounts",
          "type": "address[]"
        },
        {
          "internalType": "uint256[]",
          "name": "ids",
          "type": "uint256[]"
        }
      ],
      "name": "balanceOfBatch",
      "outputs": [
        {
          "internalType": "uint256[]",
          "name": "",
          "type": "uint256[]"
        }
      ],
      "stateMutability": "view",
      "type": "function"
    },
    {
      "inputs": [],
      "name": "contractURI",
      "outputs": [
        {
          "internalType": "string",
          "name": "",
          "type": "string"
        }
      ],
      "stateMutability": "view",
      "type": "function"
    },
    {
      "inputs": [
        {
          "internalType": "uint256",
          "name": "id",
          "type": "uint256"
        }
      ],
      "name": "exists",
      "outputs": [
        {
          "internalType": "bool",
          "name": "",
          "type": "bool"
        }
      ],
      "stateMutability": "view",
      "type": "function"
    },
    {
      "inputs": [
        {
          "internalType": "bytes32",
          "name": "role",
          "type": "bytes32"
        }
      ],
      "name": "getRoleAdmin",
      "outputs": [
        {
          "internalType": "bytes32",
          "name": "",
          "type": "bytes32"
        }
      ],
      "stateMutability": "view",
      "type": "function"
    },
    {
      "inputs": [
        {
          "internalType": "bytes32",
          "name": "role",
          "type": "bytes32"
        },
        {
          "internalType": "address",
          "name": "account",
          "type": "address"
        }
      ],
      "name": "grantRole",
      "outputs": [],
      "stateMutability": "nonpayable",
      "type": "function"
    },
    {
      "inputs": [
        {
          "internalType": "bytes32",
          "name": "role",
          "type": "bytes32"
        },
        {
          "internalType": "address",
          "name": "account",
          "type": "address"
        }
      ],
      "name": "hasRole",
      "outputs": [
        {
          "internalType": "bool",
          "name": "",
          "type": "bool"
        }
      ],
      "stateMutability": "view",
      "type": "function"
    },
    {
      "inputs": [
        {
          "internalType": "address",
          "name": "account",
          "type": "address"
        },
        {
          "internalType": "address",
          "name": "operator",
          "type": "address"
        }
      ],
      "name": "isApprovedForAll",
      "outputs": [
        {
          "internalType": "bool",
          "name": "",
          "type": "bool"
        }
      ],
      "stateMutability": "view",
      "type": "function"
    },
    {
      "inputs": [
        {
          "internalType": "address",
          "name": "to",
          "type": "address"
        },
        {
          "internalType": "uint256",
          "name": "id",
          "type": "uint256"
        },
        {
          "internalType": "uint256",
          "name": "amount",
          "type": "uint256"
        },
        {
          "internalType": "bytes",
          "name": "data",
          "type": "bytes"
        }
      ],
      "name": "mint",
      "outputs": [],
      "stateMutability": "nonpayable",
      "type": "function"
    },
    {
      "inputs": [
        {
          "internalType": "address",
          "name": "to",
          "type": "address"
        },
        {
          "internalType": "uint256[]",
          "name": "ids",
          "type": "uint256[]"
        },
        {
          "internalType": "uint256[]",
          "name": "amounts",
          "type": "uint256[]"
        },
        {
          "internalType": "bytes",
          "name": "data",
          "type": "bytes"
        }
      ],
      "name": "mintBatch",
      "outputs": [],
      "stateMutability": "nonpayable",
      "type": "function"
    },
    {
      "inputs": [],
      "name": "owner",
      "outputs": [
        {
          "internalType": "address",
          "name": "",
          "type": "address"
        }
      ],
      "stateMutability": "view",
      "type": "function"
    },
    {
      "inputs": [],
      "name": "renounceOwnership",
      "outputs": [],
      "stateMutability": "nonpayable",
      "type": "function"
    },
    {
      "inputs": [
        {
          "internalType": "bytes32",
          "name": "role",
          "type": "bytes32"
        },
        {
          "internalType": "address",
          "name": "account",
          "type": "address"
        }
      ],
      "name": "renounceRole",
      "outputs": [],
      "stateMutability": "nonpayable",
      "type": "function"
    },
    {
      "inputs": [
        {
          "internalType": "bytes32",
          "name": "role",
          "type": "bytes32"
        },
        {
          "internalType": "address",
          "name": "account",
          "type": "address"
        }
      ],
      "name": "revokeRole",
      "outputs": [],
      "stateMutability": "nonpayable",
      "type": "function"
    },
    {
      "inputs": [
        {
          "internalType": "address",
          "name": "from",
          "type": "address"
        },
        {
          "internalType": "address",
          "name": "to",
          "type": "address"
        },
        {
          "internalType": "uint256[]",
          "name": "ids",
          "type": "uint256[]"
        },
        {
          "internalType": "uint256[]",
          "name": "amounts",
          "type": "uint256[]"
        },
        {
          "internalType": "bytes",
          "name": "data",
          "type": "bytes"
        }
      ],
      "name": "safeBatchTransferFrom",
      "outputs": [],
      "stateMutability": "nonpayable",
      "type": "function"
    },
    {
      "inputs": [
        {
          "internalType": "address",
          "name": "from",
          "type": "address"
        },
        {
          "internalType": "address",
          "name": "to",
          "type": "address"
        },
        {
          "internalType": "uint256",
          "name": "id",
          "type": "uint256"
        },
        {
          "internalType": "uint256",
          "name": "amount",
          "type": "uint256"
        },
        {
          "internalType": "bytes",
          "name": "data",
          "type": "bytes"
        }
      ],
      "name": "safeTransferFrom",
      "outputs": [],
      "stateMutability": "nonpayable",
      "type": "function"
    },
    {
      "inputs": [
        {
          "internalType": "address",
          "name": "operator",
          "type": "address"
        },
        {
          "internalType": "bool",
          "name": "approved",
          "type": "bool"
        }
      ],
      "name": "setApprovalForAll",
      "outputs": [],
      "stateMutability": "nonpayable",
      "type": "function"
    },
    {
      "inputs": [
        {
          "internalType": "string",
          "name": "newContractUri",
          "type": "string"
        }
      ],
      "name": "setContractURI",
      "outputs": [],
      "stateMutability": "nonpayable",
      "type": "function"
    },
    {
      "inputs": [
        {
          "internalType": "string",
          "name": "newuri",
          "type": "string"
        }
      ],
      "name": "setTokenURI",
      "outputs": [],
      "stateMutability": "nonpayable",
      "type": "function"
    },
    {
      "inputs": [
        {
          "internalType": "bytes4",
          "name": "interfaceId",
          "type": "bytes4"
        }
      ],
      "name": "supportsInterface",
      "outputs": [
        {
          "internalType": "bool",
          "name": "",
          "type": "bool"
        }
      ],
      "stateMutability": "view",
      "type": "function"
    },
    {
      "inputs": [
        {
          "internalType": "uint256",
          "name": "id",
          "type": "uint256"
        }
      ],
      "name": "totalSupply",
      "outputs": [
        {
          "internalType": "uint256",
          "name": "",
          "type": "uint256"
        }
      ],
      "stateMutability": "view",
      "type": "function"
    },
    {
      "inputs": [
        {
          "internalType": "address",
          "name": "newOwner",
          "type": "address"
        }
      ],
      "name": "transferOwnership",
      "outputs": [],
      "stateMutability": "nonpayable",
      "type": "function"
    },
    {
      "inputs": [
        {
          "internalType": "uint256",
          "name": "",
          "type": "uint256"
        }
      ],
      "name": "uri",
      "outputs": [
        {
          "internalType": "string",
          "name": "",
          "type": "string"
        }
      ],
      "stateMutability": "view",
      "type": "function"
    }
  ],
  "transactionHash": "0x1eb62bf278f39d955a49a113686e11c4d51841d78d5ab7dfeb51680738b26353",
  "args": [
    "https://staging.memberr.xyz/collectibles/saas-demo/metadata/contract_info.json",
    "https://staging.memberr.xyz/collectibles/saas-demo/metadata/{id}.json"
  ],
  "numDeployments": 1,
  "solcInputHash": "1f0236375726b0aa630bb5003dc0b589",
  "bytecode": "0x60806040523480156200001157600080fd5b5060405162002a9b38038062002a9b83398101604081905262000034916200032f565b80620000408162000098565b506200004c33620000b1565b620000578262000103565b6200006460003362000118565b620000907f7804d923f43a17d325d77e781528e0793b2edd9890ab45fc64efd7b4b427744c3362000118565b5050620003d6565b8051620000ad906002906020840190620001bc565b5050565b600480546001600160a01b038381166001600160a01b0319831681179093556040519116919082907f8be0079c531659141344cd1fd0a4f28419497f9722a3daafe3b4186f6b6457e090600090a35050565b8051620000ad906006906020840190620001bc565b60008281526005602090815260408083206001600160a01b038516845290915290205460ff16620000ad5760008281526005602090815260408083206001600160a01b03851684529091529020805460ff19166001179055620001783390565b6001600160a01b0316816001600160a01b0316837f2f8788117e7eff1d82e926ec794901d17c78024a50270940304540a733656f0d60405160405180910390a45050565b828054620001ca9062000399565b90600052602060002090601f016020900481019282620001ee576000855562000239565b82601f106200020957805160ff191683800117855562000239565b8280016001018555821562000239579182015b82811115620002395782518255916020019190600101906200021c565b50620002479291506200024b565b5090565b5b808211156200024757600081556001016200024c565b634e487b7160e01b600052604160045260246000fd5b600082601f8301126200028a57600080fd5b81516001600160401b0380821115620002a757620002a762000262565b604051601f8301601f19908116603f01168101908282118183101715620002d257620002d262000262565b81604052838152602092508683858801011115620002ef57600080fd5b600091505b83821015620003135785820183015181830184015290820190620002f4565b83821115620003255760008385830101525b9695505050505050565b600080604083850312156200034357600080fd5b82516001600160401b03808211156200035b57600080fd5b620003698683870162000278565b935060208501519150808211156200038057600080fd5b506200038f8582860162000278565b9150509250929050565b600181811c90821680620003ae57607f821691505b60208210811415620003d057634e487b7160e01b600052602260045260246000fd5b50919050565b6126b580620003e66000396000f3fe608060405234801561001057600080fd5b50600436106101a25760003560e01c80637f345710116100ee578063bd85b03911610097578063e8a3d48511610071578063e8a3d485146103cd578063e985e9c5146103d5578063f242432a14610411578063f2fde38b1461042457600080fd5b8063bd85b03914610387578063d547741f146103a7578063e0df5b6f146103ba57600080fd5b8063938e3d7b116100c8578063938e3d7b14610359578063a217fddf1461036c578063a22cb4651461037457600080fd5b80637f345710146102de5780638da5cb5b1461030557806391d148541461032057600080fd5b80632f2ff15d116101505780634f558e791161012a5780634f558e79146102a1578063715018a6146102c3578063731133e9146102cb57600080fd5b80632f2ff15d1461025b57806336568abe1461026e5780634e1273f41461028157600080fd5b80631f7fdffa116101815780631f7fdffa14610210578063248a9ca3146102255780632eb2c2d61461024857600080fd5b8062fdd58e146101a757806301ffc9a7146101cd5780630e89341c146101f0575b600080fd5b6101ba6101b5366004611d51565b610437565b6040519081526020015b60405180910390f35b6101e06101db366004611d91565b6104e0565b60405190151581526020016101c4565b6102036101fe366004611dae565b6104f1565b6040516101c49190611e1f565b61022361021e366004611f88565b610585565b005b6101ba610233366004611dae565b60009081526005602052604090206001015490565b610223610256366004612021565b610597565b6102236102693660046120cb565b610639565b61022361027c3660046120cb565b610663565b61029461028f3660046120f7565b6106ef565b6040516101c491906121fd565b6101e06102af366004611dae565b600090815260036020526040902054151590565b61022361082d565b6102236102d9366004612210565b610841565b6101ba7f7804d923f43a17d325d77e781528e0793b2edd9890ab45fc64efd7b4b427744c81565b6004546040516001600160a01b0390911681526020016101c4565b6101e061032e3660046120cb565b60009182526005602090815260408084206001600160a01b0393909316845291905290205460ff1690565b610223610367366004612265565b61084d565b6101ba600081565b6102236103823660046122b6565b610880565b6101ba610395366004611dae565b60009081526003602052604090205490565b6102236103b53660046120cb565b61088b565b6102236103c8366004612265565b6108b0565b6102036108e3565b6101e06103e33660046122f2565b6001600160a01b03918216600090815260016020908152604080832093909416825291909152205460ff1690565b61022361041f36600461231c565b610975565b610223610432366004612381565b610a10565b60006001600160a01b0383166104ba5760405162461bcd60e51b815260206004820152602a60248201527f455243313135353a2061646472657373207a65726f206973206e6f742061207660448201527f616c6964206f776e65720000000000000000000000000000000000000000000060648201526084015b60405180910390fd5b506000908152602081815260408083206001600160a01b03949094168352929052205490565b60006104eb82610aa0565b92915050565b6060600280546105009061239c565b80601f016020809104026020016040519081016040528092919081815260200182805461052c9061239c565b80156105795780601f1061054e57610100808354040283529160200191610579565b820191906000526020600020905b81548152906001019060200180831161055c57829003601f168201915b50505050509050919050565b61059184848484610ade565b50505050565b6001600160a01b0385163314806105b357506105b385336103e3565b6106255760405162461bcd60e51b815260206004820152602e60248201527f455243313135353a2063616c6c6572206973206e6f7420746f6b656e206f776e60448201527f6572206f7220617070726f76656400000000000000000000000000000000000060648201526084016104b1565b6106328585858585610cb3565b5050505050565b60008281526005602052604090206001015461065481610f1f565b61065e8383610f29565b505050565b6001600160a01b03811633146106e15760405162461bcd60e51b815260206004820152602f60248201527f416363657373436f6e74726f6c3a2063616e206f6e6c792072656e6f756e636560448201527f20726f6c657320666f722073656c66000000000000000000000000000000000060648201526084016104b1565b6106eb8282610fcb565b5050565b606081518351146107685760405162461bcd60e51b815260206004820152602960248201527f455243313135353a206163636f756e747320616e6420696473206c656e67746860448201527f206d69736d61746368000000000000000000000000000000000000000000000060648201526084016104b1565b6000835167ffffffffffffffff81111561078457610784611e32565b6040519080825280602002602001820160405280156107ad578160200160208202803683370190505b50905060005b8451811015610825576107f88582815181106107d1576107d16123d7565b60200260200101518583815181106107eb576107eb6123d7565b6020026020010151610437565b82828151811061080a5761080a6123d7565b602090810291909101015261081e81612403565b90506107b3565b509392505050565b61083561104e565b61083f60006110a8565b565b61059184848484611112565b7f7804d923f43a17d325d77e781528e0793b2edd9890ab45fc64efd7b4b427744c61087781610f1f565b6106eb82611235565b6106eb338383611248565b6000828152600560205260409020600101546108a681610f1f565b61065e8383610fcb565b7f7804d923f43a17d325d77e781528e0793b2edd9890ab45fc64efd7b4b427744c6108da81610f1f565b6106eb8261133d565b6060600680546108f29061239c565b80601f016020809104026020016040519081016040528092919081815260200182805461091e9061239c565b801561096b5780601f106109405761010080835404028352916020019161096b565b820191906000526020600020905b81548152906001019060200180831161094e57829003601f168201915b5050505050905090565b6001600160a01b038516331480610991575061099185336103e3565b610a035760405162461bcd60e51b815260206004820152602e60248201527f455243313135353a2063616c6c6572206973206e6f7420746f6b656e206f776e60448201527f6572206f7220617070726f76656400000000000000000000000000000000000060648201526084016104b1565b6106328585858585611350565b610a1861104e565b6001600160a01b038116610a945760405162461bcd60e51b815260206004820152602660248201527f4f776e61626c653a206e6577206f776e657220697320746865207a65726f206160448201527f646472657373000000000000000000000000000000000000000000000000000060648201526084016104b1565b610a9d816110a8565b50565b60006001600160e01b031982167f7965db0b0000000000000000000000000000000000000000000000000000000014806104eb57506104eb82611509565b6001600160a01b038416610b3e5760405162461bcd60e51b815260206004820152602160248201527f455243313135353a206d696e7420746f20746865207a65726f206164647265736044820152607360f81b60648201526084016104b1565b8151835114610ba05760405162461bcd60e51b815260206004820152602860248201527f455243313135353a2069647320616e6420616d6f756e7473206c656e677468206044820152670dad2e6dac2e8c6d60c31b60648201526084016104b1565b33610bb0816000878787876115a4565b60005b8451811015610c4b57838181518110610bce57610bce6123d7565b6020026020010151600080878481518110610beb57610beb6123d7565b602002602001015181526020019081526020016000206000886001600160a01b03166001600160a01b031681526020019081526020016000206000828254610c33919061241e565b90915550819050610c4381612403565b915050610bb3565b50846001600160a01b031660006001600160a01b0316826001600160a01b03167f4a39dc06d4c0dbc64b70af90fd698a233a518aa5d07e595d983b8c0526c8f7fb8787604051610c9c929190612436565b60405180910390a4610632816000878787876115b2565b8151835114610d155760405162461bcd60e51b815260206004820152602860248201527f455243313135353a2069647320616e6420616d6f756e7473206c656e677468206044820152670dad2e6dac2e8c6d60c31b60648201526084016104b1565b6001600160a01b038416610d795760405162461bcd60e51b815260206004820152602560248201527f455243313135353a207472616e7366657220746f20746865207a65726f206164604482015264647265737360d81b60648201526084016104b1565b33610d888187878787876115a4565b60005b8451811015610eb1576000858281518110610da857610da86123d7565b602002602001015190506000858381518110610dc657610dc66123d7565b602090810291909101810151600084815280835260408082206001600160a01b038e168352909352919091205490915081811015610e595760405162461bcd60e51b815260206004820152602a60248201527f455243313135353a20696e73756666696369656e742062616c616e636520666f60448201526939103a3930b739b332b960b11b60648201526084016104b1565b6000838152602081815260408083206001600160a01b038e8116855292528083208585039055908b16825281208054849290610e9690849061241e565b9250508190555050505080610eaa90612403565b9050610d8b565b50846001600160a01b0316866001600160a01b0316826001600160a01b03167f4a39dc06d4c0dbc64b70af90fd698a233a518aa5d07e595d983b8c0526c8f7fb8787604051610f01929190612436565b60405180910390a4610f178187878787876115b2565b505050505050565b610a9d8133611758565b60008281526005602090815260408083206001600160a01b038516845290915290205460ff166106eb5760008281526005602090815260408083206001600160a01b03851684529091529020805460ff19166001179055610f873390565b6001600160a01b0316816001600160a01b0316837f2f8788117e7eff1d82e926ec794901d17c78024a50270940304540a733656f0d60405160405180910390a45050565b60008281526005602090815260408083206001600160a01b038516845290915290205460ff16156106eb5760008281526005602090815260408083206001600160a01b0385168085529252808320805460ff1916905551339285917ff6391f5c32d9c69d2a47ea670b442974b53935d1edc7fd64eb21e047a839171b9190a45050565b6004546001600160a01b0316331461083f5760405162461bcd60e51b815260206004820181905260248201527f4f776e61626c653a2063616c6c6572206973206e6f7420746865206f776e657260448201526064016104b1565b600480546001600160a01b038381167fffffffffffffffffffffffff0000000000000000000000000000000000000000831681179093556040519116919082907f8be0079c531659141344cd1fd0a4f28419497f9722a3daafe3b4186f6b6457e090600090a35050565b6001600160a01b0384166111725760405162461bcd60e51b815260206004820152602160248201527f455243313135353a206d696e7420746f20746865207a65726f206164647265736044820152607360f81b60648201526084016104b1565b33600061117e856117cd565b9050600061118b856117cd565b905061119c836000898585896115a4565b6000868152602081815260408083206001600160a01b038b168452909152812080548792906111cc90849061241e565b909155505060408051878152602081018790526001600160a01b03808a1692600092918716917fc3d58168c5ae7397731d063d5bbf3d657854427343f4c083240f7aacaa2d0f62910160405180910390a461122c83600089898989611818565b50505050505050565b80516106eb906006906020840190611c9c565b816001600160a01b0316836001600160a01b031614156112d05760405162461bcd60e51b815260206004820152602960248201527f455243313135353a2073657474696e6720617070726f76616c2073746174757360448201527f20666f722073656c66000000000000000000000000000000000000000000000060648201526084016104b1565b6001600160a01b03838116600081815260016020908152604080832094871680845294825291829020805460ff191686151590811790915591519182527f17307eab39ab6107e8899845ad3d59bd9653f200f220920489ca2b5937696c31910160405180910390a3505050565b80516106eb906002906020840190611c9c565b6001600160a01b0384166113b45760405162461bcd60e51b815260206004820152602560248201527f455243313135353a207472616e7366657220746f20746865207a65726f206164604482015264647265737360d81b60648201526084016104b1565b3360006113c0856117cd565b905060006113cd856117cd565b90506113dd8389898585896115a4565b6000868152602081815260408083206001600160a01b038c168452909152902054858110156114615760405162461bcd60e51b815260206004820152602a60248201527f455243313135353a20696e73756666696369656e742062616c616e636520666f60448201526939103a3930b739b332b960b11b60648201526084016104b1565b6000878152602081815260408083206001600160a01b038d8116855292528083208985039055908a1682528120805488929061149e90849061241e565b909155505060408051888152602081018890526001600160a01b03808b16928c821692918816917fc3d58168c5ae7397731d063d5bbf3d657854427343f4c083240f7aacaa2d0f62910160405180910390a46114fe848a8a8a8a8a611818565b505050505050505050565b60006001600160e01b031982167fd9b67a2600000000000000000000000000000000000000000000000000000000148061156c57506001600160e01b031982167f0e89341c00000000000000000000000000000000000000000000000000000000145b806104eb57507f01ffc9a7000000000000000000000000000000000000000000000000000000006001600160e01b03198316146104eb565b610f17868686868686611914565b6001600160a01b0384163b15610f175760405163bc197c8160e01b81526001600160a01b0385169063bc197c81906115f69089908990889088908890600401612464565b6020604051808303816000875af1925050508015611631575060408051601f3d908101601f1916820190925261162e918101906124c2565b60015b6116e75761163d6124df565b806308c379a0141561167757506116526124fb565b8061165d5750611679565b8060405162461bcd60e51b81526004016104b19190611e1f565b505b60405162461bcd60e51b815260206004820152603460248201527f455243313135353a207472616e7366657220746f206e6f6e2d4552433131353560448201527f526563656976657220696d706c656d656e74657200000000000000000000000060648201526084016104b1565b6001600160e01b0319811663bc197c8160e01b1461122c5760405162461bcd60e51b815260206004820152602860248201527f455243313135353a204552433131353552656365697665722072656a656374656044820152676420746f6b656e7360c01b60648201526084016104b1565b60008281526005602090815260408083206001600160a01b038516845290915290205460ff166106eb5761178b81611aa2565b611796836020611ab4565b6040516020016117a7929190612585565b60408051601f198184030181529082905262461bcd60e51b82526104b191600401611e1f565b60408051600180825281830190925260609160009190602080830190803683370190505090508281600081518110611807576118076123d7565b602090810291909101015292915050565b6001600160a01b0384163b15610f175760405163f23a6e6160e01b81526001600160a01b0385169063f23a6e619061185c9089908990889088908890600401612606565b6020604051808303816000875af1925050508015611897575060408051601f3d908101601f19168201909252611894918101906124c2565b60015b6118a35761163d6124df565b6001600160e01b0319811663f23a6e6160e01b1461122c5760405162461bcd60e51b815260206004820152602860248201527f455243313135353a204552433131353552656365697665722072656a656374656044820152676420746f6b656e7360c01b60648201526084016104b1565b6001600160a01b03851661199b5760005b835181101561199957828181518110611940576119406123d7565b60200260200101516003600086848151811061195e5761195e6123d7565b602002602001015181526020019081526020016000206000828254611983919061241e565b90915550611992905081612403565b9050611925565b505b6001600160a01b038416610f175760005b835181101561122c5760008482815181106119c9576119c96123d7565b6020026020010151905060008483815181106119e7576119e76123d7565b6020026020010151905060006003600084815260200190815260200160002054905081811015611a7f5760405162461bcd60e51b815260206004820152602860248201527f455243313135353a206275726e20616d6f756e74206578636565647320746f7460448201527f616c537570706c7900000000000000000000000000000000000000000000000060648201526084016104b1565b60009283526003602052604090922091039055611a9b81612403565b90506119ac565b60606104eb6001600160a01b03831660145b60606000611ac3836002612649565b611ace90600261241e565b67ffffffffffffffff811115611ae657611ae6611e32565b6040519080825280601f01601f191660200182016040528015611b10576020820181803683370190505b5090507f300000000000000000000000000000000000000000000000000000000000000081600081518110611b4757611b476123d7565b60200101906001600160f81b031916908160001a9053507f780000000000000000000000000000000000000000000000000000000000000081600181518110611b9257611b926123d7565b60200101906001600160f81b031916908160001a9053506000611bb6846002612649565b611bc190600161241e565b90505b6001811115611c46577f303132333435363738396162636465660000000000000000000000000000000085600f1660108110611c0257611c026123d7565b1a60f81b828281518110611c1857611c186123d7565b60200101906001600160f81b031916908160001a90535060049490941c93611c3f81612668565b9050611bc4565b508315611c955760405162461bcd60e51b815260206004820181905260248201527f537472696e67733a20686578206c656e67746820696e73756666696369656e7460448201526064016104b1565b9392505050565b828054611ca89061239c565b90600052602060002090601f016020900481019282611cca5760008555611d10565b82601f10611ce357805160ff1916838001178555611d10565b82800160010185558215611d10579182015b82811115611d10578251825591602001919060010190611cf5565b50611d1c929150611d20565b5090565b5b80821115611d1c5760008155600101611d21565b80356001600160a01b0381168114611d4c57600080fd5b919050565b60008060408385031215611d6457600080fd5b611d6d83611d35565b946020939093013593505050565b6001600160e01b031981168114610a9d57600080fd5b600060208284031215611da357600080fd5b8135611c9581611d7b565b600060208284031215611dc057600080fd5b5035919050565b60005b83811015611de2578181015183820152602001611dca565b838111156105915750506000910152565b60008151808452611e0b816020860160208601611dc7565b601f01601f19169290920160200192915050565b602081526000611c956020830184611df3565b634e487b7160e01b600052604160045260246000fd5b601f8201601f1916810167ffffffffffffffff81118282101715611e6e57611e6e611e32565b6040525050565b600067ffffffffffffffff821115611e8f57611e8f611e32565b5060051b60200190565b600082601f830112611eaa57600080fd5b81356020611eb782611e75565b604051611ec48282611e48565b83815260059390931b8501820192828101915086841115611ee457600080fd5b8286015b84811015611eff5780358352918301918301611ee8565b509695505050505050565b600067ffffffffffffffff831115611f2457611f24611e32565b604051611f3b601f8501601f191660200182611e48565b809150838152848484011115611f5057600080fd5b83836020830137600060208583010152509392505050565b600082601f830112611f7957600080fd5b611c9583833560208501611f0a565b60008060008060808587031215611f9e57600080fd5b611fa785611d35565b9350602085013567ffffffffffffffff80821115611fc457600080fd5b611fd088838901611e99565b94506040870135915080821115611fe657600080fd5b611ff288838901611e99565b9350606087013591508082111561200857600080fd5b5061201587828801611f68565b91505092959194509250565b600080600080600060a0868803121561203957600080fd5b61204286611d35565b945061205060208701611d35565b9350604086013567ffffffffffffffff8082111561206d57600080fd5b61207989838a01611e99565b9450606088013591508082111561208f57600080fd5b61209b89838a01611e99565b935060808801359150808211156120b157600080fd5b506120be88828901611f68565b9150509295509295909350565b600080604083850312156120de57600080fd5b823591506120ee60208401611d35565b90509250929050565b6000806040838503121561210a57600080fd5b823567ffffffffffffffff8082111561212257600080fd5b818501915085601f83011261213657600080fd5b8135602061214382611e75565b6040516121508282611e48565b83815260059390931b850182019282810191508984111561217057600080fd5b948201945b838610156121955761218686611d35565b82529482019490820190612175565b965050860135925050808211156121ab57600080fd5b506121b885828601611e99565b9150509250929050565b600081518084526020808501945080840160005b838110156121f2578151875295820195908201906001016121d6565b509495945050505050565b602081526000611c9560208301846121c2565b6000806000806080858703121561222657600080fd5b61222f85611d35565b93506020850135925060408501359150606085013567ffffffffffffffff81111561225957600080fd5b61201587828801611f68565b60006020828403121561227757600080fd5b813567ffffffffffffffff81111561228e57600080fd5b8201601f8101841361229f57600080fd5b6122ae84823560208401611f0a565b949350505050565b600080604083850312156122c957600080fd5b6122d283611d35565b9150602083013580151581146122e757600080fd5b809150509250929050565b6000806040838503121561230557600080fd5b61230e83611d35565b91506120ee60208401611d35565b600080600080600060a0868803121561233457600080fd5b61233d86611d35565b945061234b60208701611d35565b93506040860135925060608601359150608086013567ffffffffffffffff81111561237557600080fd5b6120be88828901611f68565b60006020828403121561239357600080fd5b611c9582611d35565b600181811c908216806123b057607f821691505b602082108114156123d157634e487b7160e01b600052602260045260246000fd5b50919050565b634e487b7160e01b600052603260045260246000fd5b634e487b7160e01b600052601160045260246000fd5b6000600019821415612417576124176123ed565b5060010190565b60008219821115612431576124316123ed565b500190565b60408152600061244960408301856121c2565b828103602084015261245b81856121c2565b95945050505050565b60006001600160a01b03808816835280871660208401525060a0604083015261249060a08301866121c2565b82810360608401526124a281866121c2565b905082810360808401526124b68185611df3565b98975050505050505050565b6000602082840312156124d457600080fd5b8151611c9581611d7b565b600060033d11156124f85760046000803e5060005160e01c5b90565b600060443d10156125095790565b6040516003193d81016004833e81513d67ffffffffffffffff816024840111818411171561253957505050505090565b82850191508151818111156125515750505050505090565b843d870101602082850101111561256b5750505050505090565b61257a60208286010187611e48565b509095945050505050565b7f416363657373436f6e74726f6c3a206163636f756e74200000000000000000008152600083516125bd816017850160208801611dc7565b7f206973206d697373696e6720726f6c652000000000000000000000000000000060179184019182015283516125fa816028840160208801611dc7565b01602801949350505050565b60006001600160a01b03808816835280871660208401525084604083015283606083015260a0608083015261263e60a0830184611df3565b979650505050505050565b6000816000190483118215151615612663576126636123ed565b500290565b600081612677576126776123ed565b50600019019056fea2646970667358221220f3febb0871c35246afe56c1c7f91dcb364c505be5216c37fbce38f875cb5d52e64736f6c634300080b0033",
  "devdoc": {
    "kind": "dev",
    "methods": {
      "balanceOf(address,uint256)": {
        "details": "See {IERC1155-balanceOf}. Requirements: - `account` cannot be the zero address."
      },
      "balanceOfBatch(address[],uint256[])": {
        "details": "See {IERC1155-balanceOfBatch}. Requirements: - `accounts` and `ids` must have the same length."
      },
      "exists(uint256)": {
        "details": "Indicates whether any token exist with a given id, or not."
      },
      "getRoleAdmin(bytes32)": {
        "details": "Returns the admin role that controls `role`. See {grantRole} and {revokeRole}. To change a role's admin, use {_setRoleAdmin}."
      },
      "grantRole(bytes32,address)": {
        "details": "Grants `role` to `account`. If `account` had not been already granted `role`, emits a {RoleGranted} event. Requirements: - the caller must have ``role``'s admin role. May emit a {RoleGranted} event."
      },
      "hasRole(bytes32,address)": {
        "details": "Returns `true` if `account` has been granted `role`."
      },
      "isApprovedForAll(address,address)": {
        "details": "See {IERC1155-isApprovedForAll}."
      },
      "owner()": {
        "details": "Returns the address of the current owner."
      },
      "renounceOwnership()": {
        "details": "Leaves the contract without owner. It will not be possible to call `onlyOwner` functions anymore. Can only be called by the current owner. NOTE: Renouncing ownership will leave the contract without an owner, thereby removing any functionality that is only available to the owner."
      },
      "renounceRole(bytes32,address)": {
        "details": "Revokes `role` from the calling account. Roles are often managed via {grantRole} and {revokeRole}: this function's purpose is to provide a mechanism for accounts to lose their privileges if they are compromised (such as when a trusted device is misplaced). If the calling account had been revoked `role`, emits a {RoleRevoked} event. Requirements: - the caller must be `account`. May emit a {RoleRevoked} event."
      },
      "revokeRole(bytes32,address)": {
        "details": "Revokes `role` from `account`. If `account` had been granted `role`, emits a {RoleRevoked} event. Requirements: - the caller must have ``role``'s admin role. May emit a {RoleRevoked} event."
      },
      "safeBatchTransferFrom(address,address,uint256[],uint256[],bytes)": {
        "details": "See {IERC1155-safeBatchTransferFrom}."
      },
      "safeTransferFrom(address,address,uint256,uint256,bytes)": {
        "details": "See {IERC1155-safeTransferFrom}."
      },
      "setApprovalForAll(address,bool)": {
        "details": "See {IERC1155-setApprovalForAll}."
      },
      "totalSupply(uint256)": {
        "details": "Total amount of tokens in with a given id."
      },
      "transferOwnership(address)": {
        "details": "Transfers ownership of the contract to a new account (`newOwner`). Can only be called by the current owner."
      },
      "uri(uint256)": {
        "details": "See {IERC1155MetadataURI-uri}. This implementation returns the same URI for *all* token types. It relies on the token type ID substitution mechanism https://eips.ethereum.org/EIPS/eip-1155#metadata[defined in the EIP]. Clients calling this function must replace the `\\{id\\}` substring with the actual token type ID."
      }
    },
    "version": 1
  },
  "userdoc": {
    "kind": "user",
    "methods": {},
    "version": 1
  },
  "storageLayout": {
    "storage": [
      {
        "astId": 527,
        "contract": "contracts/MemberrSaasDemoToken.sol:MemberrSaasDemoToken",
        "label": "_balances",
        "offset": 0,
        "slot": "0",
        "type": "t_mapping(t_uint256,t_mapping(t_address,t_uint256))"
      },
      {
        "astId": 533,
        "contract": "contracts/MemberrSaasDemoToken.sol:MemberrSaasDemoToken",
        "label": "_operatorApprovals",
        "offset": 0,
        "slot": "1",
        "type": "t_mapping(t_address,t_mapping(t_address,t_bool))"
      },
      {
        "astId": 535,
        "contract": "contracts/MemberrSaasDemoToken.sol:MemberrSaasDemoToken",
        "label": "_uri",
        "offset": 0,
        "slot": "2",
        "type": "t_string_storage"
      },
      {
        "astId": 1897,
        "contract": "contracts/MemberrSaasDemoToken.sol:MemberrSaasDemoToken",
        "label": "_totalSupply",
        "offset": 0,
        "slot": "3",
        "type": "t_mapping(t_uint256,t_uint256)"
      },
      {
        "astId": 396,
        "contract": "contracts/MemberrSaasDemoToken.sol:MemberrSaasDemoToken",
        "label": "_owner",
        "offset": 0,
        "slot": "4",
        "type": "t_address"
      },
      {
        "astId": 24,
        "contract": "contracts/MemberrSaasDemoToken.sol:MemberrSaasDemoToken",
        "label": "_roles",
        "offset": 0,
        "slot": "5",
        "type": "t_mapping(t_bytes32,t_struct(RoleData)19_storage)"
      },
      {
        "astId": 3508,
        "contract": "contracts/MemberrSaasDemoToken.sol:MemberrSaasDemoToken",
        "label": "_contractUri",
        "offset": 0,
        "slot": "6",
        "type": "t_string_storage"
      }
    ],
    "types": {
      "t_address": {
        "encoding": "inplace",
        "label": "address",
        "numberOfBytes": "20"
      },
      "t_bool": {
        "encoding": "inplace",
        "label": "bool",
        "numberOfBytes": "1"
      },
      "t_bytes32": {
        "encoding": "inplace",
        "label": "bytes32",
        "numberOfBytes": "32"
      },
      "t_mapping(t_address,t_bool)": {
        "encoding": "mapping",
        "key": "t_address",
        "label": "mapping(address => bool)",
        "numberOfBytes": "32",
        "value": "t_bool"
      },
      "t_mapping(t_address,t_mapping(t_address,t_bool))": {
        "encoding": "mapping",
        "key": "t_address",
        "label": "mapping(address => mapping(address => bool))",
        "numberOfBytes": "32",
        "value": "t_mapping(t_address,t_bool)"
      },
      "t_mapping(t_address,t_uint256)": {
        "encoding": "mapping",
        "key": "t_address",
        "label": "mapping(address => uint256)",
        "numberOfBytes": "32",
        "value": "t_uint256"
      },
      "t_mapping(t_bytes32,t_struct(RoleData)19_storage)": {
        "encoding": "mapping",
        "key": "t_bytes32",
        "label": "mapping(bytes32 => struct AccessControl.RoleData)",
        "numberOfBytes": "32",
        "value": "t_struct(RoleData)19_storage"
      },
      "t_mapping(t_uint256,t_mapping(t_address,t_uint256))": {
        "encoding": "mapping",
        "key": "t_uint256",
        "label": "mapping(uint256 => mapping(address => uint256))",
        "numberOfBytes": "32",
        "value": "t_mapping(t_address,t_uint256)"
      },
      "t_mapping(t_uint256,t_uint256)": {
        "encoding": "mapping",
        "key": "t_uint256",
        "label": "mapping(uint256 => uint256)",
        "numberOfBytes": "32",
        "value": "t_uint256"
      },
      "t_string_storage": {
        "encoding": "bytes",
        "label": "string",
        "numberOfBytes": "32"
      },
      "t_struct(RoleData)19_storage": {
        "encoding": "inplace",
        "label": "struct AccessControl.RoleData",
        "members": [
          {
            "astId": 16,
            "contract": "contracts/MemberrSaasDemoToken.sol:MemberrSaasDemoToken",
            "label": "members",
            "offset": 0,
            "slot": "0",
            "type": "t_mapping(t_address,t_bool)"
          },
          {
            "astId": 18,
            "contract": "contracts/MemberrSaasDemoToken.sol:MemberrSaasDemoToken",
            "label": "adminRole",
            "offset": 0,
            "slot": "1",
            "type": "t_bytes32"
          }
        ],
        "numberOfBytes": "64"
      },
      "t_uint256": {
        "encoding": "inplace",
        "label": "uint256",
        "numberOfBytes": "32"
      }
    }
  }
}